:030000000204CB2C
:0C04CB00787FE4F6D8FD75817B020512F5
:0A0A9F00112233445500000000004E
:100760000537B151F308700532B252F409710142F4
:010770000F79
:0B0A7B00E4FEEEC39F5004000E80F765
:010A8600224D
:0E0A4300E4FFFE0FBF00010EEF64964E70F54B
:010A51002282
:1009F400E4FEEF3392A3EF25E0FFD2A2A2A4E433F6
:080A04004207C2A20EBE08EA7F
:010A0C0022C7
:0B09D8007F07120A61AB07AD037F2709
:1009E300C2A11209F4AC07AF051209F4D2A1AF04F6
:0109F30022E1
:0C0A6100C2A11209F47FFF1209F4D2A117
:010A6D002266
:0608C2008B598A5A895B84
:1008C800C2A11209F4AD07E4FCECC3955C50177F94
:1008D800FF1209F4AB59AA5AA95B8C82758300EF01
:0A08E8001203B70C80E3D2A1AF05A4
:0108F20022E3
:060890008B598A5A895BB6
:10089600C2A11209F4AD07E4FCECC3955C5018AB99
:1008A60059055BE55BAA5A7002055A14F9120371E1
:0B08B600FF1209F40C80E2D2A1AF0594
:0108C1002214
:0608F3008B4E8A4F895074
:1008F9001209D8EB30E61FC2A0AB4EAA4FA950751A
:100909005C207F611208C27DFF7FE21209E3D2A059
:08091900120A437F00227F0156
:0109210022B3
:10095100C2A0755C207FA0120890D2A020A5FD1234
:1009610009D8EB30E40A7DFF7FE11209E37F102211
:09097100EB30E5037F20227FFF3B
:01097A00225A
:10065000784E7C007D007BFF7A0A799F7E007F05C3
:1006600012034B78537C007D007BFF7A0A79A47ECD
:10067000007F0512034BC2A2D2A1C2A07B007A0068
:10068000794E755C057F301208907B007A007953B3
:10069000755C057F101208C2E553B41117E554B418
:1006A0002212E555B4330DE556B44408E557B45568
:0606B000037F00227F0120
:0106B6002221
:10070F00AD07C2A07F311209E37DFF7FE21209E33B
:10071F0085525C7F30120890AB53AA54A955855669
:10072F005C7F2A1208907D017F211209E37F22123C
:10073F0009E37D1A7F241209E3E4FD7F251209E303
:10074F00AD577F261209E37D0F7F201209E3D2A058
:01075F002277
:10097B00C2A07D0E7F201209E3D2A07F0F120A7B4B
:0F098B00120951C2A07D0F7F201209E3D2A022D2
:10099A00E4FDFCC3ED9FEC9E5014E4FBFA0BBB0094
:0E09AA00010AEBF44A70F60DBD00010C80E569
:0109B800221C
:0D0A6E00C290C291C292C293C294C295225E
:10079F00C2A6120650EF70FA7552057553007554C4
:1007AF00007555327556058542577B007A007937AB
:1007BF007F2012070F9000007F647E0012099AB20B
:0C07CF00A6A3E5826406458370EEC2A676
:0107DB0022FB
:100A0D0075B802438901758CFF758AF6D2AFD2A9EC
:030A1D00D28C2256
:100A3300438920758DFD758BFDD28EC29FD29E2278
:090AA900D2A8D288D2AAD28A2276
:0C0A8700120A6E12079F120A0D020A33B9
:0C0A930085433C85443E854540D2A622A8
:070AD60085404185403F22ED
:090AB200C291D292D293C29422A7
:090ABB00D291C292C293D294229E
:090AC400E53F75F00584F53F22C1
:090ACD00E54175F00584F54122B4
:10092200120A6E120AD6E53CD394964003120AB21A
:10093200E53CC394645003120ABBE53ED39496404F
:0F09420003120AC4E53EC394645003120ACD2287
:0F0A5200C2A6C290C291C292C293C294C2952210
:1007DC00AC4CE41201C6E4FBFA79A0784112011F7B
:1007EC008F778E768D758C747F5C7E8F7D427C3E90
:1007FC00AB77AA76A975A8741200167BCD7ACC7942
:0C080C00CC783D12011FE4F54C1201FAFB
:0108180022BD
:10081900AC4DE41201C6E4FBFA79A0784112011F3C
:100829008F7B8E7A8D798C787F5C7E8F7D427C3E42
:10083900AB7BAA7AA979A8781200167BCD7ACC79F4
:0C084900CC783D12011FE4F54D1201FABD
:010855002280
:100856007573011203E7AF6EAE6DAD6CAC6B75735D
:10086600021203E77F02120557E4FEEEC39F500F04
:1008760074082EF8E6F5993099FDC2990E80ECE4DD
:0A088600F54DF54C7F05FE02099ABE
:100A20001207DC8F461208198F477B007A0079463F
:030A300002097B3D
:1009B900120A8720A5147B007A0079431208F3EF05
:0F09C90070F1120A9312092280E9120A5280E497
:03000B000206B733
:1006B700C0E0C0D005490548E549D395415004D26B
:1006C700908002C290E549B4FF05B290754900E5F4
:1006D70048D3953F5004D2958002C295E548B4FFB0
:1006E70005B295754800054AE54AB46410754A0095
:1006F700054BE54BB46406753D01754B00758CFFE2
:08070700758AF6D0D0D0E03273
:03000300020006F2
:03000600054D3273
:0300130002000EDA
:03000E00054C326C
:10077100202A080000000000000000000000000026
:100781000000000000000000000000000000000068
:0D079100000000000000000000000000005B
:1005D8008B648A658966120371AB60AA61A962851A
:1005E80063827583001203B7AB64AA65A96690009D
:1005F8000112038AFFE563F582758300A3AB60AA45
:1006080061A962EF1203B7AB64AA65A966900002FC
:1006180012038AFFE563F582758300A3A3AB60AA82
:1006280061A962EF1203B7AB64AA65A966900003DB
:1006380012038AFFE563F582758300A3A3A3AB6069
:08064800AA61A962EF0203B7E9
:1003E7008F728E718D708C6FE573D3940A40030200
:1003F70004CAE57370030204CAE57314B40A004023
:10040700030204CA90041975F003A4C58325F0C537
:100417008373020437020445020453020461020491
:100427006F02047D02048B0204990204A70204B53B
:10043700756000756100756208756301807C756081
:1004470000756100756208756305806E75600075DB
:1004570061007562087563098060756000756100E9
:1004670075620875630D805275600075610075626D
:1004770008756311804475600075610075620875C1
:1004870063158036756000756100756208756319BC
:10049700802875600075610075620875631D801A94
:1004A700756000756100756208756321800C756061
:1004B700007561007562087563257B007A00796FA6
:0404C7001205D82220
:10055700EFD3940A5003EF70037F0022750824EF4E
:1005670014B40A00506890057B75F003A4C5832571
:10057700F0C5837302059902059F0205A50205AB25
:100587000205B10205B70205BD0205C30205C9028E
:1005970005CF750D057F06227511097F0A2275158E
:1005A7000D7F0E227519117F1222751D157F1622D8
:1005B7007521197F1A2275251D7F1E227529217F16
:1005C7002222752D257F26227531297F2A227F0039
:0105D7002201
:10001600EC4D6011E8497017ED33EC3304600DE4E4
:10002600FCFFFEFD22E933E8330470F80202661293
:10003600023158046009E4CC248150062850090294
:10004600027028400302026DC0E0EB4A7044B9809A
:1000560006D0E0FB02025CEF4E701CBD8008EBFF91
:10006600EAFEE9FD80EBE98DF0A4FEE5F00200FF73
:10007600E9CDF9EAFEEBFFEF89F0A4FCE5F0CE89C5
:10008600F0A42EFFE435F0CD89F0A42DFEE435F082
:100096008067EF4E7005BD80D780C3EF8BF0A4ACB0
:1000A600F0EE8BF0A42CFCE435F0F8EF8AF0A42CEB
:1000B600E5F038FCE433CB8DF0A42CFCE5F03BF8FE
:1000C600EE8AF0A42CFCE5F038F8E433CF89F0A4EE
:1000D6002CFCE5F038CF3400CE89F0A42FFFE5F0F4
:1000E6003EFEE433C98DF0A42EFEE5F039CD8AF04C
:1000F600A42FFFE5F03EFEE43DFD33D0E0FB5007C4
:100106000BBB000F020270EC2CFCEF33FFEE33FE4C
:06011600ED33FD0202487A
:10011C00020270EC5D046005E8590470030202668B
:10012C00120231580460F6EC4860F2EC7004FDFEEB
:10013C00FF22C860DB2481C85009C39860025006B6
:10014C0002026D9850CAF582E9294B4A7005AB82C0
:10015C0002025C75F0007C1A7880C3EF9BEE9AED7E
:10016C0099400DC3EF9BFFEE9AFEED99FDE842F02E
:10017C00DC23ACF0D0E0FFD0E0FED0E0FDAB822081
:10018C00E7101BEB60BAEC2CFCEF33FFEE33FEED0B
:10019C0033FD020248E803F830E705C0F075F000C3
:1001AC00EF2FFFEE33FEED33FD40B830E7C280AAEF
:1001BC0075F020800E75F010800575F0087D007EBE
:1001CC00007F003392D530D5031203D9EC334010A5
:1001DC00EF33FFEE33FEED33FDEC33FCD5F0ED22C7
:0E01EC00E5F0247EA2D513CC92E7CDCEFF2203
:1001FA00EDD2E7CD33EC3392D524814006E4FFFEFD
:10020A00FDFC22FCE4CFCECDCC24E0501174FF805B
:10021A00EDC3CC13CCCD13CDCE13CECF13CF0470F8
:07022A00F030D5DE0203D91C
:10023100E9D2E7C933E833F892D5EDD2E7CD33EC13
:0702410033FC5002B2D5228C
:10024800EC30E7100FBF000C0EBE00080DBD000417
:100258000BEB6014A2D5EB13FCED92E7FD2274FFC3
:10026800FCFDFEFF22E480F8A2D574FF13FC7D801C
:03027800E480EF30
:1004D7000209B9E493A3F8E493A34003F68001F279
:1004E70008DFF48029E493A3F85407240CC8C33326
:1004F700C4540F4420C8834004F456800146F6DFF5
:10050700E4800B0102040810204080900760E47E1D
:10051700019360BCA3FF543F30E509541FFEE493E9
:10052700A360010ECF54C025E060A840B8E493A3B0
:10053700FAE493A3F8E493A3C8C582C8CAC583CADB
:10054700F0A3C8C582C8CAC583CADFE9DEE780BE93
:01079E00005A
:10027B00E709F608DFFA8046E709F208DFFA803E65
:10028B0088828C83E709F0A3DFFA8032E309F60852
:10029B00DFFA8078E309F208DFFA807088828C83BA
:1002AB00E309F0A3DFFA806489828A83E0A3F6086E
:1002BB00DFFA805889828A83E0A3F208DFFA804C48
:1002CB0080D280FA80C680D4806980F2803380101F
:1002DB0080A680EA809A80A880DA80E280CA803388
:1002EB0089828A83ECFAE493A3C8C582C8CCC58300
:1002FB00CCF0A3C8C582C8CCC583CCDFE9DEE780D0
:10030B000D89828A83E493A3F608DFF9ECFAA9F04E
:10031B00EDFB2289828A83ECFAE0A3C8C582C8CCA4
:10032B00C583CCF0A3C8C582C8CCC583CCDFEADEBD
:10033B00E880DB89828A83E493A3F208DFF980CC1F
:10034B0088F0EF60010E4E60C388F0ED2402B40418
:10035B000050B9F582EB2402B4040050AF232345BF
:06036B0082239002CB7317
:10037100BB010689828A83E0225002E722BBFE028A
:09038100E32289828A83E49322BD
:10038A00BB010CE58229F582E5833AF583E0225028
:10039A0006E92582F8E622BBFE06E92582F8E22272
:0D03AA00E58229F582E5833AF583E493228C
:1003B700F8BB010DE58229F582E5833AF583E8F07C
:1003C700225006E92582C8F622BBFE05E92582C828
:0203D700F22210
:0E03D900C3E49FFFE49EFEE49DFDE49CFC2235
:00000001FF
