:03000000020134C6
:0C013400787FE4F6D8FD75812902017B7C
:0A04CD001122334455000000000026
:10049300050DB252F409710508B151F30870011248
:0104A3000F49
:0B04C100E4FEEEC39F5004000E80F725
:0104CC00220D
:0E04A500E4FFFE0FBF00010EEF64964E70F5EF
:0104B3002226
:10043B00E4FEEF3392A4EF25E0FFD2A1A2A0E433B8
:08044B004207C2A10EBE08EA3F
:010453002286
:0B0404007F071204B4AB07AD037F2795
:10040F00C2A312043BAC07AF0512043BD2A3AF0447
:01041F0022BA
:0C04B400C2A312043B7FFF12043BD2A342
:0104C0002219
:0602E7008B238A24892507
:1002ED00C2A312043BAD07E4FCECC3952650177F67
:1002FD00FF12043BAB23AA24A9258C82758300EF42
:0A030D001201120C80E3D2A3AF0529
:0103170022C3
:0602B5008B238A24892539
:1002BB00C2A312043BAD07E4FCECC395265018AB6C
:1002CB00230525E525AA247002052414F91200F94B
:0B02DB00FF12043B0C80E2D2A3AF0531
:0102E60022F5
:060318008B278A288929C9
:10031E00120404EB30E61FC2A2AB27AA28A9297546
:10032E0026207F611202E77DFF7FE212040FD2A228
:08033E001204A57F00227F01DB
:010346002294
:10039D00C2A27526207FA01202B5D2A220A5FD1201
:1003AD000404EB30E40A7DFF7FE112040F7F10227D
:0903BD00EB30E5037F20227FFFF5
:0103C6002214
:1001C00078187C007D007BFF7A0479CD7E007F0566
:1001D0001200D3781D7C007D007BFF7A0479D27EEB
:1001E000007F051200D3C2A1D2A3C2A27B007A0075
:1001F00079187526057F301202B57B007A00791DCB
:100200007526057F101202E7E51DB41117E51EB42F
:100210002212E51FB4330DE520B44408E521B4559E
:06022000037F00227F01B4
:0102260022B5
:10022700AD07C2A27F3112040F7DFF7FE212040FD8
:10023700851C267F301202B5AB1DAA1EA91F85207B
:10024700267F2A1202B57D017F2112040F7F221219
:10025700040F7D1A7F2412040FE4FD7F2512040F7B
:10026700AD217F2612040F7D0F7F2012040FD2A22B
:010277002264
:1003C700C2A27D0E7F2012040FD2A27F0F1204C19A
:0F03D70012039DC2A27D0F7F2012040FD2A2221B
:0C034700C291C2928F80D2927F197E007A
:10035300E4FDFCC3ED9FEC9E5014E4FBFA0BBB00E1
:0E036300010AEBF44A70F60DBD00010C80E5B6
:010371002269
:10042000EF1FAA0670011E4A60107C137D88ED1D27
:0A043000AA0470011C4A60E880F481
:01043A00229F
:10027800C2A61201C0EF70FA751C05751D00751E27
:1002880000751F087520058512217B007A00790DFD
:100298007F201202279000007FF47E01120353B2E0
:0C02A800A6A3E5826406458370EEC2A6A2
:0102B4002227
:10048100759D1C43901CE4F5BD75BC807F02FE0286
:02049100042045
:0804D700C290120347C29222F9
:0804DF00D290120347C29222E1
:100454007F381204D77F0C1204D77F061204D77F8B
:09046400011204D77F800204D7C5
:0604EF00120278020481F4
:10046D00EF4488F5BC00000000E5BC30E4FB53BC54
:04047D00EFAFBD22FE
:1003E6007F0312046D8F137F0412046D8F147F0533
:0E03F60012046D8F157B007A0079130203C785
:1003720020A5227B007A007913120318EF701BD29A
:10038200A67F801204D7AF161204DF7FC01204D7F3
:0B039200AF170204DFC2A612045422C1
:0804E7001204EF1203E680FB92
:100140000204E7E493A3F8E493A34003F68001F2EA
:1001500008DFF48029E493A3F85407240CC8C333C0
:10016000C4540F4420C8834004F456800146F6DF8F
:10017000E4800B0102040810204080900493E47E88
:10018000019360BCA3FF543F30E509541FFEE49384
:10019000A360010ECF54C025E060A840B8E493A34B
:1001A000FAE493A3F8E493A3C8C582C8CAC583CA76
:1001B000F0A3C8C582C8CAC583CADFE9DEE780BE2E
:0104A4000057
:10000300E709F608DFFA8046E709F208DFFA803EDF
:1000130088828C83E709F0A3DFFA8032E309F608CC
:10002300DFFA8078E309F208DFFA807088828C8334
:10003300E309F0A3DFFA806489828A83E0A3F608E8
:10004300DFFA805889828A83E0A3F208DFFA804CC2
:1000530080D280FA80C680D4806980F28033801099
:1000630080A680EA809A80A880DA80E280CA803302
:1000730089828A83ECFAE493A3C8C582C8CCC5837A
:10008300CCF0A3C8C582C8CCC583CCDFE9DEE7804A
:100093000D89828A83E493A3F608DFF9ECFAA9F0C9
:1000A300EDFB2289828A83ECFAE0A3C8C582C8CC1F
:1000B300C583CCF0A3C8C582C8CCC583CCDFEADE38
:1000C300E880DB89828A83E493A3F208DFF980CC9A
:1000D30088F0EF60010E4E60C388F0ED2402B40493
:1000E3000050B9F582EB2402B4040050AF2323453A
:0600F3008223900053730C
:1000F900BB010689828A83E0225002E722BBFE0205
:09010900E32289828A83E4932237
:10011200F8BB010DE58229F582E5833AF583E8F023
:10012200225006E92582C8F622BBFE05E92582C8CF
:02013200F222B7
:00000001FF
